{
  "_format": "hh-sol-artifact-1",
  "contractName": "EventGame",
  "sourceName": "contracts/eventGame.sol",
  "abi": [
    {
      "inputs": [
        {
          "internalType": "address",
          "name": "_logAddress",
          "type": "address"
        },
        {
          "internalType": "address",
          "name": "_vrfAddress",
          "type": "address"
        },
        {
          "internalType": "address",
          "name": "_owner",
          "type": "address"
        },
        {
          "internalType": "uint256",
          "name": "_eventId",
          "type": "uint256"
        }
      ],
      "stateMutability": "nonpayable",
      "type": "constructor"
    },
    {
      "anonymous": false,
      "inputs": [
        {
          "indexed": true,
          "internalType": "address",
          "name": "gameAddress",
          "type": "address"
        },
        {
          "indexed": true,
          "internalType": "address",
          "name": "player",
          "type": "address"
        },
        {
          "indexed": false,
          "internalType": "string",
          "name": "result",
          "type": "string"
        },
        {
          "indexed": false,
          "internalType": "uint256",
          "name": "points",
          "type": "uint256"
        }
      ],
      "name": "result",
      "type": "event"
    },
    {
      "inputs": [
        {
          "internalType": "uint256",
          "name": "_playId",
          "type": "uint256"
        }
      ],
      "name": "_getAlgoPlay",
      "outputs": [
        {
          "internalType": "enum EventGame.PossiblePlays",
          "name": "",
          "type": "uint8"
        }
      ],
      "stateMutability": "view",
      "type": "function"
    },
    {
      "inputs": [],
      "name": "endGame",
      "outputs": [],
      "stateMutability": "nonpayable",
      "type": "function"
    },
    {
      "inputs": [],
      "name": "getEventId",
      "outputs": [
        {
          "internalType": "uint256",
          "name": "",
          "type": "uint256"
        }
      ],
      "stateMutability": "view",
      "type": "function"
    },
    {
      "inputs": [],
      "name": "getScoreboard",
      "outputs": [
        {
          "components": [
            {
              "internalType": "uint256",
              "name": "points",
              "type": "uint256"
            },
            {
              "internalType": "uint256",
              "name": "numberOfPlays",
              "type": "uint256"
            },
            {
              "internalType": "uint256",
              "name": "timeElapsed",
              "type": "uint256"
            }
          ],
          "internalType": "struct EventGame.UserScore",
          "name": "",
          "type": "tuple"
        }
      ],
      "stateMutability": "view",
      "type": "function"
    },
    {
      "inputs": [
        {
          "internalType": "address",
          "name": "_userAddress",
          "type": "address"
        }
      ],
      "name": "isWinner",
      "outputs": [
        {
          "internalType": "bool",
          "name": "",
          "type": "bool"
        }
      ],
      "stateMutability": "view",
      "type": "function"
    },
    {
      "inputs": [],
      "name": "register",
      "outputs": [],
      "stateMutability": "nonpayable",
      "type": "function"
    },
    {
      "inputs": [],
      "name": "s_eventId",
      "outputs": [
        {
          "internalType": "uint256",
          "name": "",
          "type": "uint256"
        }
      ],
      "stateMutability": "view",
      "type": "function"
    },
    {
      "inputs": [
        {
          "internalType": "address",
          "name": "",
          "type": "address"
        }
      ],
      "name": "s_isRegistered",
      "outputs": [
        {
          "internalType": "bool",
          "name": "",
          "type": "bool"
        }
      ],
      "stateMutability": "view",
      "type": "function"
    },
    {
      "inputs": [
        {
          "internalType": "uint256",
          "name": "",
          "type": "uint256"
        }
      ],
      "name": "s_registeredAddresses",
      "outputs": [
        {
          "internalType": "address",
          "name": "",
          "type": "address"
        }
      ],
      "stateMutability": "view",
      "type": "function"
    },
    {
      "inputs": [
        {
          "internalType": "address",
          "name": "",
          "type": "address"
        }
      ],
      "name": "scoreboard",
      "outputs": [
        {
          "internalType": "uint256",
          "name": "points",
          "type": "uint256"
        },
        {
          "internalType": "uint256",
          "name": "numberOfPlays",
          "type": "uint256"
        },
        {
          "internalType": "uint256",
          "name": "timeElapsed",
          "type": "uint256"
        }
      ],
      "stateMutability": "view",
      "type": "function"
    },
    {
      "inputs": [],
      "name": "startGame",
      "outputs": [],
      "stateMutability": "nonpayable",
      "type": "function"
    },
    {
      "inputs": [],
      "name": "status",
      "outputs": [
        {
          "internalType": "enum EventGame.GameStatus",
          "name": "",
          "type": "uint8"
        }
      ],
      "stateMutability": "view",
      "type": "function"
    },
    {
      "inputs": [
        {
          "internalType": "string",
          "name": "_newName",
          "type": "string"
        }
      ],
      "name": "updateName",
      "outputs": [],
      "stateMutability": "nonpayable",
      "type": "function"
    },
    {
      "inputs": [
        {
          "internalType": "uint256",
          "name": "_newPrice",
          "type": "uint256"
        }
      ],
      "name": "updatePrice",
      "outputs": [],
      "stateMutability": "nonpayable",
      "type": "function"
    },
    {
      "inputs": [
        {
          "internalType": "uint256",
          "name": "_newTickets",
          "type": "uint256"
        }
      ],
      "name": "updateTickets",
      "outputs": [],
      "stateMutability": "nonpayable",
      "type": "function"
    },
    {
      "inputs": [
        {
          "internalType": "uint256",
          "name": "_play",
          "type": "uint256"
        }
      ],
      "name": "userPlay",
      "outputs": [],
      "stateMutability": "nonpayable",
      "type": "function"
    }
  ],
  "bytecode": "0x6101006040523480156200001257600080fd5b50604051620019c7380380620019c783398101604081905262000035916200007c565b6001600160601b0319606094851b811660805292841b831660a052921b1660c05260e052620000cd565b80516001600160a01b03811681146200007757600080fd5b919050565b6000806000806080858703121562000092578384fd5b6200009d856200005f565b9350620000ad602086016200005f565b9250620000bd604086016200005f565b6060959095015193969295505050565b60805160601c60a05160601c60c05160601c60e05161183562000192600039600081816101b70152818161028c01528181610410015281816105c9015281816106da015281816107780152818161081701528181610e8501528181610f5b0152818161102a015281816110be01526111920152600081816105600152818161063a015261070f01526000505060008181610437015281816105f6015281816106a3015281816107a50152818161085001528181610eab01526110e401526118356000f3fe608060405234801561001057600080fd5b50600436106101005760003560e01c806384da92a711610097578063a3195c4711610066578063a3195c4714610274578063a48e7eec14610287578063bc3c09c4146102ae578063d65ab5f2146102d157600080fd5b806384da92a7146102005780638d6cc56d146102135780639d5b24c0146102265780639d9ca28d1461025157600080fd5b806343610884116100d3578063436108841461018b5780634a17bbde146101b55780636cbc2ded146101e557806377897d21146101ed57600080fd5b80630c3a5699146101055780631aa3a00814610154578063200d2ed21461015e57806325ec536814610178575b600080fd5b610134610113366004611585565b60036020526000908152604090208054600182015460029092015490919083565b604080519384526020840192909252908201526060015b60405180910390f35b61015c6102d9565b005b60005461016b9060ff1681565b60405161014b91906116a6565b61016b610186366004611676565b6104a2565b6101936104af565b604080518251815260208084015190820152918101519082015260600161014b565b7f00000000000000000000000000000000000000000000000000000000000000005b60405190815260200161014b565b61015c61050d565b61015c6101fb366004611676565b610555565b61015c61020e3660046115cc565b61062f565b61015c610221366004611676565b610704565b610239610234366004611676565b6107de565b6040516001600160a01b03909116815260200161014b565b61026461025f366004611585565b610808565b604051901515815260200161014b565b61015c610282366004611676565b6108cc565b6101d77f000000000000000000000000000000000000000000000000000000000000000081565b6102646102bc366004611585565b60026020526000908152604090205460ff1681565b61015c610e46565b6000805460ff1660028111156102ff57634e487b7160e01b600052602160045260246000fd5b1461030957600080fd5b3360009081526002602052604090205460ff161561036e5760405162461bcd60e51b815260206004820152601c60248201527f596f75206861766520616c72656164792072656769737465726564210000000060448201526064015b60405180910390fd5b60408051606081018252600080825260208083018281524284860190815233808552600384528685208651815592516001808501919091559151600293840155815480830183557fb10e2d527612073b26eecdfd717e6a320cf44b4afac2b0732d9fcbe2b7fa0cf60180546001600160a01b031916821790559190925291849020805460ff19169091179055915163034f17d960e11b815260048101929092527f00000000000000000000000000000000000000000000000000000000000000006024830152907f0000000000000000000000000000000000000000000000000000000000000000906001600160a01b0382169063069e2fb2906044015b600060405180830381600087803b15801561048657600080fd5b505af115801561049a573d6000803e3d6000fd5b505050505050565b60008060015b9392505050565b6104d360405180606001604052806000815260200160008152602001600081525090565b5033600090815260036020908152604091829020825160608101845281548152600182015492810192909252600201549181019190915290565b600160005460ff16600281111561053457634e487b7160e01b600052602160045260246000fd5b1461053e57600080fd5b6000805460ff191660021790556105536110af565b565b336001600160a01b037f0000000000000000000000000000000000000000000000000000000000000000161461058a57600080fd5b6000805460ff1660028111156105b057634e487b7160e01b600052602160045260246000fd5b146105ba57600080fd5b604051639abea6c160e01b81527f00000000000000000000000000000000000000000000000000000000000000006004820152602481018290527f0000000000000000000000000000000000000000000000000000000000000000906001600160a01b03821690639abea6c19060440161046c565b336001600160a01b037f0000000000000000000000000000000000000000000000000000000000000000161461066457600080fd5b6000805460ff16600281111561068a57634e487b7160e01b600052602160045260246000fd5b1461069457600080fd5b60405163064ab2b160e41b81527f0000000000000000000000000000000000000000000000000000000000000000906001600160a01b038216906364ab2b109061046c907f0000000000000000000000000000000000000000000000000000000000000000908690600401611704565b336001600160a01b037f0000000000000000000000000000000000000000000000000000000000000000161461073957600080fd5b6000805460ff16600281111561075f57634e487b7160e01b600052602160045260246000fd5b1461076957600080fd5b60405163090859eb60e11b81527f00000000000000000000000000000000000000000000000000000000000000006004820152602481018290527f0000000000000000000000000000000000000000000000000000000000000000906001600160a01b03821690631210b3d69060440161046c565b600181815481106107ee57600080fd5b6000918252602090912001546001600160a01b0316905081565b604051637dfb132f60e11b81527f000000000000000000000000000000000000000000000000000000000000000060048201526001600160a01b0382811660248301526000917f00000000000000000000000000000000000000000000000000000000000000009182169063fbf6265e9060440160206040518083038186803b15801561089457600080fd5b505afa1580156108a8573d6000803e3d6000fd5b505050506040513d601f19601f820116820180604052508101906104a891906115ac565b3360009081526003602090815260408083206001908101546002909352922054909160ff9091161515146109425760405162461bcd60e51b815260206004820152601760248201527f596f7520617265206e6f742072656769737465726564210000000000000000006044820152606401610365565b60058111156109a15760405162461bcd60e51b815260206004820152602560248201527f596f75206861766520616c7265616479206d61646520616c6c20796f757220706044820152646c6179732160d81b6064820152608401610365565b60006109ac826104a2565b90508060028111156109ce57634e487b7160e01b600052602160045260246000fd5b8360028111156109ee57634e487b7160e01b600052602160045260246000fd5b6002811115610a0d57634e487b7160e01b600052602160045260246000fd5b1415610a7d5760408051818152600481830152636472617760e01b6060820152600160208201529051339130916000805160206117e08339815191529181900360800190a3336000908152600360205260408120805460019290610a7290849061175f565b90915550610df09050565b6000836002811115610a9f57634e487b7160e01b600052602160045260246000fd5b6002811115610abe57634e487b7160e01b600052602160045260246000fd5b148015610aea57506001816002811115610ae857634e487b7160e01b600052602160045260246000fd5b145b15610b1f57604051339030906000805160206117e083398151915290610b12906000906116de565b60405180910390a3610df0565b6000836002811115610b4157634e487b7160e01b600052602160045260246000fd5b6002811115610b6057634e487b7160e01b600052602160045260246000fd5b148015610b8c57506002816002811115610b8a57634e487b7160e01b600052602160045260246000fd5b145b15610bde57604051339030906000805160206117e083398151915290610bb4906003906116b9565b60405180910390a33360009081526003602081905260408220805491929091610a7290849061175f565b6001836002811115610c0057634e487b7160e01b600052602160045260246000fd5b6002811115610c1f57634e487b7160e01b600052602160045260246000fd5b148015610c4b57506000816002811115610c4957634e487b7160e01b600052602160045260246000fd5b145b15610c7357604051339030906000805160206117e083398151915290610bb4906003906116b9565b6001836002811115610c9557634e487b7160e01b600052602160045260246000fd5b6002811115610cb457634e487b7160e01b600052602160045260246000fd5b148015610ce057506002816002811115610cde57634e487b7160e01b600052602160045260246000fd5b145b15610d0857604051339030906000805160206117e083398151915290610b12906000906116de565b6002836002811115610d2a57634e487b7160e01b600052602160045260246000fd5b6002811115610d4957634e487b7160e01b600052602160045260246000fd5b148015610d7557506000816002811115610d7357634e487b7160e01b600052602160045260246000fd5b145b15610d9d57604051339030906000805160206117e083398151915290610b12906000906116de565b604051339030906000805160206117e083398151915290610dc0906003906116b9565b60405180910390a33360009081526003602081905260408220805491929091610dea90849061175f565b90915550505b3360009081526003602052604081206001908101805491929091610e1590849061175f565b90915550503360009081526003602052604081206002018054429290610e3c90849061175f565b9091555050505050565b6000805460ff166002811115610e6c57634e487b7160e01b600052602160045260246000fd5b14610e7657600080fd5b604051636e59b1ad60e01b81527f000000000000000000000000000000000000000000000000000000000000000060048201527f0000000000000000000000000000000000000000000000000000000000000000906000906001600160a01b03831690636e59b1ad9060240160206040518083038186803b158015610efa57600080fd5b505afa158015610f0e573d6000803e3d6000fd5b505050506040513d601f19601f82011682018060405250810190610f32919061168e565b60015490915080821061101b5760005b8181101561101957836001600160a01b031663ee0591fe7f000000000000000000000000000000000000000000000000000000000000000060018481548110610f9b57634e487b7160e01b600052603260045260246000fd5b60009182526020909120015460405160e084901b6001600160e01b031916815260048101929092526001600160a01b03166024820152604401600060405180830381600087803b158015610fee57600080fd5b505af1158015611002573d6000803e3d6000fd5b50505050808061101190611777565b915050610f42565b505b60405163f052cf9960e01b81527f000000000000000000000000000000000000000000000000000000000000000060048201526001600160a01b0384169063f052cf9990602401600060405180830381600087803b15801561107c57600080fd5b505af1158015611090573d6000803e3d6000fd5b505050504266038d7ea4c680006110a7919061175f565b600555505050565b604051636e59b1ad60e01b81527f000000000000000000000000000000000000000000000000000000000000000060048201527f0000000000000000000000000000000000000000000000000000000000000000906000906001600160a01b03831690636e59b1ad9060240160206040518083038186803b15801561113357600080fd5b505afa158015611147573d6000803e3d6000fd5b505050506040513d601f19601f8201168201806040525081019061116b919061168e565b905060005b8181101561121c57600061118382611221565b604051637702c8ff60e11b81527f000000000000000000000000000000000000000000000000000000000000000060048201526001600160a01b0380831660248301529192509085169063ee0591fe90604401600060405180830381600087803b1580156111f057600080fd5b505af1158015611204573d6000803e3d6000fd5b5050505050808061121490611777565b915050611170565b505050565b60008181526004602090815260408083208054825181850281018501909352808352849383018282801561127e57602002820191906000526020600020905b81546001600160a01b03168152600190910190602001808311611260575b50505050509050600081519050600061129783836112be565b905060006112a482611361565b905060006112b38583866113e2565b979650505050505050565b60608060005b8381101561135957600360008683815181106112f057634e487b7160e01b600052603260045260246000fd5b60200260200101516001600160a01b03166001600160a01b031681526020019081526020016000206000015482828151811061133c57634e487b7160e01b600052603260045260246000fd5b60209081029190910101528061135181611777565b9150506112c4565b509392505050565b600080805b83518110156113db578184828151811061139057634e487b7160e01b600052603260045260246000fd5b602002602001015111156113c9578381815181106113be57634e487b7160e01b600052603260045260246000fd5b602002602001015191505b806113d381611777565b915050611366565b5092915050565b600060608180805b858110156114a857600088828151811061141457634e487b7160e01b600052603260045260246000fd5b602002602001015190508760036000836001600160a01b03166001600160a01b03168152602001908152602001600020600001541415611495578085848151811061146f57634e487b7160e01b600052603260045260246000fd5b6001600160a01b039092166020928302919091019091015261149260018461175f565b92505b50806114a081611777565b9150506113ea565b508251600114156114e357826000815181106114d457634e487b7160e01b600052603260045260246000fd5b602002602001015191506114ef565b6114ec836114f9565b91505b5095945050505050565b60004281805b845181101561135957600085828151811061152a57634e487b7160e01b600052603260045260246000fd5b60200260200101519050600060036000836001600160a01b03166001600160a01b0316815260200190815260200160002060020154905084811015611570578094508193505b5050808061157d90611777565b9150506114ff565b600060208284031215611596578081fd5b81356001600160a01b03811681146104a8578182fd5b6000602082840312156115bd578081fd5b815180151581146104a8578182fd5b6000602082840312156115dd578081fd5b813567ffffffffffffffff808211156115f4578283fd5b818401915084601f830112611607578283fd5b813581811115611619576116196117a8565b604051601f8201601f19908116603f01168101908382118183101715611641576116416117a8565b81604052828152876020848701011115611659578586fd5b826020860160208301379182016020019490945295945050505050565b600060208284031215611687578081fd5b5035919050565b60006020828403121561169f578081fd5b5051919050565b602081016116b3836117be565b91905290565b6040808252600390820152623bb4b760e91b6060820152602081019190915260800190565b6040808252600490820152636c6f737360e01b6060820152602081019190915260800190565b828152600060206040818401528351806040850152825b818110156117375785810183015185820160600152820161171b565b818111156117485783606083870101525b50601f01601f191692909201606001949350505050565b6000821982111561177257611772611792565b500190565b600060001982141561178b5761178b611792565b5060010190565b634e487b7160e01b600052601160045260246000fd5b634e487b7160e01b600052604160045260246000fd5b600381106117dc57634e487b7160e01b600052602160045260246000fd5b5056fea17f8b350e3cc303626d75275908b42a311c29ea946002f85d057f018e43ced2a26469706673582212209c88a9e2c6764b76ff5c79510ae8a7b464ff025b378158df15dedca9b6faeac064736f6c63430008040033",
  "linkReferences": {},
  "deployedLinkReferences": {}
}