{
  "_format": "hh-sol-artifact-1",
  "contractName": "EventFactory",
  "sourceName": "contracts/eventFactory.sol",
  "abi": [
    {
      "inputs": [
        {
          "internalType": "address",
          "name": "_logAddress",
          "type": "address"
        }
      ],
      "stateMutability": "nonpayable",
      "type": "constructor"
    },
    {
      "inputs": [
        {
          "internalType": "string",
          "name": "_eventName",
          "type": "string"
        },
        {
          "internalType": "uint256",
          "name": "_numberOfTickets",
          "type": "uint256"
        },
        {
          "internalType": "uint256",
          "name": "_ticketPrice",
          "type": "uint256"
        }
      ],
      "name": "createEventGame",
      "outputs": [
        {
          "internalType": "address",
          "name": "",
          "type": "address"
        }
      ],
      "stateMutability": "nonpayable",
      "type": "function"
    }
  ],
  "bytecode": "0x60a060405234801561001057600080fd5b5060405161149c38038061149c83398101604081905261002f91610049565b60601b6001600160601b0319166080526001600055610077565b60006020828403121561005a578081fd5b81516001600160a01b0381168114610070578182fd5b9392505050565b60805160601c61140261009a6000396000818160640152608901526114026000f3fe608060405234801561001057600080fd5b506004361061002b5760003560e01c806306fb5a7414610030575b600080fd5b61004361003e3660046101f1565b61005f565b6040516001600160a01b03909116815260200160405180910390f35b6000807f0000000000000000000000000000000000000000000000000000000000000000905060007f0000000000000000000000000000000000000000000000000000000000000000336000546040516100b8906101e4565b6001600160a01b0393841681529290911660208301526040820152606001604051809103906000f0801580156100f2573d6000803e3d6000fd5b5060005460405163c90eeff160e01b81529192506001600160a01b0384169163c90eeff19161012d91859033908c908c908c906004016102ac565b600060405180830381600087803b15801561014757600080fd5b505af115801561015b573d6000803e3d6000fd5b50506000546040516307e4ccf960e51b815233600482015260248101919091526001600160a01b038516925063fc999f209150604401600060405180830381600087803b1580156101ab57600080fd5b505af11580156101bf573d6000803e3d6000fd5b5050505060016000808282546101d59190610330565b90915550929695505050505050565b6110628061036b83390190565b600080600060608486031215610205578283fd5b833567ffffffffffffffff8082111561021c578485fd5b818601915086601f83011261022f578485fd5b81358181111561024157610241610354565b604051601f8201601f19908116603f0116810190838211818310171561026957610269610354565b81604052828152896020848701011115610281578788fd5b8260208601602083013791820160209081019790975250979486013596505050604090930135925050565b8681526000602060018060a01b038089168285015280881660408501525060c0606084015285518060c0850152825b818110156102f75787810183015185820160e0015282016102db565b81811115610308578360e083870101525b506080840195909552505060a081019190915260e0601f909201601f19160101949350505050565b6000821982111561034f57634e487b7160e01b81526011600452602481fd5b500190565b634e487b7160e01b600052604160045260246000fdfe60e060405234801561001057600080fd5b5060405161106238038061106283398101604081905261002f9161006e565b6001600160601b0319606093841b81166080529190921b1660a05260c0526100a9565b80516001600160a01b038116811461006957600080fd5b919050565b600080600060608486031215610082578283fd5b61008b84610052565b925061009960208501610052565b9150604084015190509250925092565b60805160601c60a05160601c60c051610f3e6101246000396000818161033301528181610497015281816105a8015281816106460152610c4501526000818161042e0152818161050801526105dd01526000818161035a015281816104c401528181610571015281816106730152610c6b0152610f3e6000f3fe608060405234801561001057600080fd5b50600436106100a95760003560e01c806384da92a71161007157806384da92a71461015e5780638d6cc56d146101715780639d5b24c014610184578063a3195c47146101af578063bc3c09c4146101c2578063d65ab5f2146101f557600080fd5b80630c3a5699146100ae5780631aa3a008146100fd578063200d2ed214610107578063436108841461012157806377897d211461014b575b600080fd5b6100dd6100bc366004610cf7565b60036020526000908152604090208054600182015460029092015490919083565b604080519384526020840192909252908201526060015b60405180910390f35b6101056101fd565b005b6000546101149060ff1681565b6040516100f49190610de0565b6101296103c5565b60408051825181526020808401519082015291810151908201526060016100f4565b610105610159366004610dc8565b610423565b61010561016c366004610d1e565b6104fd565b61010561017f366004610dc8565b6105d2565b610197610192366004610dc8565b6106ac565b6040516001600160a01b0390911681526020016100f4565b6101056101bd366004610dc8565b6106d6565b6101e56101d0366004610cf7565b60026020526000908152604090205460ff1681565b60405190151581526020016100f4565b610105610bf9565b6000805460ff16600281111561022357634e487b7160e01b600052602160045260246000fd5b1461022d57600080fd5b3360009081526002602052604090205460ff16156102915760405162461bcd60e51b815260206004820152601c60248201527f596f75206861766520616c726561647920726567697374657265642100000000604482015260640160405180910390fd5b60408051606081018252600080825260208083018281524284860190815233808552600384528685208651815592516001808501919091559151600293840155815480830183557fb10e2d527612073b26eecdfd717e6a320cf44b4afac2b0732d9fcbe2b7fa0cf60180546001600160a01b031916821790559190925291849020805460ff19169091179055915163034f17d960e11b815260048101929092527f00000000000000000000000000000000000000000000000000000000000000006024830152907f0000000000000000000000000000000000000000000000000000000000000000906001600160a01b0382169063069e2fb2906044015b600060405180830381600087803b1580156103a957600080fd5b505af11580156103bd573d6000803e3d6000fd5b505050505050565b6103e960405180606001604052806000815260200160008152602001600081525090565b5033600090815260036020908152604091829020825160608101845281548152600182015492810192909252600201549181019190915290565b336001600160a01b037f0000000000000000000000000000000000000000000000000000000000000000161461045857600080fd5b6000805460ff16600281111561047e57634e487b7160e01b600052602160045260246000fd5b1461048857600080fd5b604051639abea6c160e01b81527f00000000000000000000000000000000000000000000000000000000000000006004820152602481018290527f0000000000000000000000000000000000000000000000000000000000000000906001600160a01b03821690639abea6c19060440161038f565b336001600160a01b037f0000000000000000000000000000000000000000000000000000000000000000161461053257600080fd5b6000805460ff16600281111561055857634e487b7160e01b600052602160045260246000fd5b1461056257600080fd5b60405163064ab2b160e41b81527f0000000000000000000000000000000000000000000000000000000000000000906001600160a01b038216906364ab2b109061038f907f0000000000000000000000000000000000000000000000000000000000000000908690600401610e53565b336001600160a01b037f0000000000000000000000000000000000000000000000000000000000000000161461060757600080fd5b6000805460ff16600281111561062d57634e487b7160e01b600052602160045260246000fd5b1461063757600080fd5b60405163090859eb60e11b81527f00000000000000000000000000000000000000000000000000000000000000006004820152602481018290527f0000000000000000000000000000000000000000000000000000000000000000906001600160a01b03821690631210b3d69060440161038f565b600181815481106106bc57600080fd5b6000918252602090912001546001600160a01b0316905081565b600160005460ff1660028111156106fd57634e487b7160e01b600052602160045260246000fd5b1461070757600080fd5b3360009081526002602052604090205460ff16151560011461072857600080fd5b336000908152600360205260409020600101546005101561074857600080fd5b600454421061075657600080fd5b6000610760610cea565b905080600281111561078257634e487b7160e01b600052602160045260246000fd5b8260028111156107a257634e487b7160e01b600052602160045260246000fd5b60028111156107c157634e487b7160e01b600052602160045260246000fd5b14156108315760408051818152600481830152636472617760e01b606082015260016020820152905133913091600080516020610ee98339815191529181900360800190a3336000908152600360205260408120805460019290610826908490610eae565b90915550610ba49050565b600082600281111561085357634e487b7160e01b600052602160045260246000fd5b600281111561087257634e487b7160e01b600052602160045260246000fd5b14801561089e5750600181600281111561089c57634e487b7160e01b600052602160045260246000fd5b145b156108d35760405133903090600080516020610ee9833981519152906108c690600090610e2d565b60405180910390a3610ba4565b60008260028111156108f557634e487b7160e01b600052602160045260246000fd5b600281111561091457634e487b7160e01b600052602160045260246000fd5b1480156109405750600281600281111561093e57634e487b7160e01b600052602160045260246000fd5b145b156109925760405133903090600080516020610ee98339815191529061096890600390610e08565b60405180910390a33360009081526003602081905260408220805491929091610826908490610eae565b60018260028111156109b457634e487b7160e01b600052602160045260246000fd5b60028111156109d357634e487b7160e01b600052602160045260246000fd5b1480156109ff575060008160028111156109fd57634e487b7160e01b600052602160045260246000fd5b145b15610a275760405133903090600080516020610ee98339815191529061096890600390610e08565b6001826002811115610a4957634e487b7160e01b600052602160045260246000fd5b6002811115610a6857634e487b7160e01b600052602160045260246000fd5b148015610a9457506002816002811115610a9257634e487b7160e01b600052602160045260246000fd5b145b15610abc5760405133903090600080516020610ee9833981519152906108c690600090610e2d565b6002826002811115610ade57634e487b7160e01b600052602160045260246000fd5b6002811115610afd57634e487b7160e01b600052602160045260246000fd5b148015610b2957506000816002811115610b2757634e487b7160e01b600052602160045260246000fd5b145b15610b515760405133903090600080516020610ee9833981519152906108c690600090610e2d565b60405133903090600080516020610ee983398151915290610b7490600390610e08565b60405180910390a33360009081526003602081905260408220805491929091610b9e908490610eae565b90915550505b3360009081526003602052604081206001908101805491929091610bc9908490610eae565b90915550503360009081526003602052604081206002018054429290610bf0908490610eae565b90915550505050565b6000805460ff166002811115610c1f57634e487b7160e01b600052602160045260246000fd5b14610c2957600080fd5b6000805460ff1916600117905560405163f052cf9960e01b81527f000000000000000000000000000000000000000000000000000000000000000060048201527f0000000000000000000000000000000000000000000000000000000000000000906001600160a01b0382169063f052cf9990602401600060405180830381600087803b158015610cb957600080fd5b505af1158015610ccd573d6000803e3d6000fd5b505050504266038d7ea4c68000610ce49190610eae565b60045550565b60008080805b9392505050565b600060208284031215610d08578081fd5b81356001600160a01b0381168114610cf0578182fd5b600060208284031215610d2f578081fd5b813567ffffffffffffffff80821115610d46578283fd5b818401915084601f830112610d59578283fd5b813581811115610d6b57610d6b610ed2565b604051601f8201601f19908116603f01168101908382118183101715610d9357610d93610ed2565b81604052828152876020848701011115610dab578586fd5b826020860160208301379182016020019490945295945050505050565b600060208284031215610dd9578081fd5b5035919050565b6020810160038310610e0257634e487b7160e01b600052602160045260246000fd5b91905290565b6040808252600390820152623bb4b760e91b6060820152602081019190915260800190565b6040808252600490820152636c6f737360e01b6060820152602081019190915260800190565b828152600060206040818401528351806040850152825b81811015610e8657858101830151858201606001528201610e6a565b81811115610e975783606083870101525b50601f01601f191692909201606001949350505050565b60008219821115610ecd57634e487b7160e01b81526011600452602481fd5b500190565b634e487b7160e01b600052604160045260246000fdfea17f8b350e3cc303626d75275908b42a311c29ea946002f85d057f018e43ced2a2646970667358221220ad636ac1decb4d0b0128ed8feee66c04787b34d35d7d4ec21e615fa23760d4a564736f6c63430008040033a264697066735822122057249f2b83b0a09e10b0cae3edd92e107d94f86a61c0c80d741fbb7b80ecbb0e64736f6c63430008040033",
  "linkReferences": {},
  "deployedLinkReferences": {}
}