{
  "_format": "hh-sol-artifact-1",
  "contractName": "EventLog",
  "sourceName": "contracts/eventLog.sol",
  "abi": [
    {
      "inputs": [],
      "stateMutability": "nonpayable",
      "type": "constructor"
    },
    {
      "anonymous": false,
      "inputs": [
        {
          "indexed": true,
          "internalType": "address",
          "name": "gameAddress",
          "type": "address"
        },
        {
          "indexed": true,
          "internalType": "address",
          "name": "owner",
          "type": "address"
        },
        {
          "indexed": false,
          "internalType": "uint256",
          "name": "timeStarted",
          "type": "uint256"
        }
      ],
      "name": "GameEnded",
      "type": "event"
    },
    {
      "anonymous": false,
      "inputs": [
        {
          "indexed": true,
          "internalType": "address",
          "name": "gameAddress",
          "type": "address"
        },
        {
          "indexed": true,
          "internalType": "address",
          "name": "owner",
          "type": "address"
        },
        {
          "indexed": false,
          "internalType": "uint256",
          "name": "timeStarted",
          "type": "uint256"
        }
      ],
      "name": "GameStarted",
      "type": "event"
    },
    {
      "inputs": [
        {
          "internalType": "address",
          "name": "_userAddress",
          "type": "address"
        },
        {
          "internalType": "uint256",
          "name": "_eventId",
          "type": "uint256"
        }
      ],
      "name": "_addCreatedEvent",
      "outputs": [],
      "stateMutability": "nonpayable",
      "type": "function"
    },
    {
      "inputs": [
        {
          "internalType": "address",
          "name": "_userAddress",
          "type": "address"
        },
        {
          "internalType": "uint256",
          "name": "_eventId",
          "type": "uint256"
        }
      ],
      "name": "_addRegisteredEvent",
      "outputs": [],
      "stateMutability": "nonpayable",
      "type": "function"
    },
    {
      "inputs": [
        {
          "internalType": "uint256",
          "name": "_eventId",
          "type": "uint256"
        },
        {
          "internalType": "address",
          "name": "_winner",
          "type": "address"
        }
      ],
      "name": "_addWinner",
      "outputs": [],
      "stateMutability": "nonpayable",
      "type": "function"
    },
    {
      "inputs": [
        {
          "internalType": "uint256",
          "name": "_eventId",
          "type": "uint256"
        }
      ],
      "name": "_gameEnd",
      "outputs": [],
      "stateMutability": "nonpayable",
      "type": "function"
    },
    {
      "inputs": [
        {
          "internalType": "uint256",
          "name": "_eventId",
          "type": "uint256"
        }
      ],
      "name": "_gameStart",
      "outputs": [],
      "stateMutability": "nonpayable",
      "type": "function"
    },
    {
      "inputs": [
        {
          "internalType": "uint256",
          "name": "_eventId",
          "type": "uint256"
        },
        {
          "internalType": "address",
          "name": "_userAddress",
          "type": "address"
        }
      ],
      "name": "_isWinner",
      "outputs": [
        {
          "internalType": "bool",
          "name": "",
          "type": "bool"
        }
      ],
      "stateMutability": "view",
      "type": "function"
    },
    {
      "inputs": [
        {
          "internalType": "uint256",
          "name": "_eventId",
          "type": "uint256"
        },
        {
          "internalType": "address",
          "name": "_eventGameAddress",
          "type": "address"
        },
        {
          "internalType": "address",
          "name": "_eventOwner",
          "type": "address"
        },
        {
          "internalType": "string",
          "name": "_eventName",
          "type": "string"
        },
        {
          "internalType": "uint256",
          "name": "_numberOfTickets",
          "type": "uint256"
        },
        {
          "internalType": "uint256",
          "name": "_ticketPrice",
          "type": "uint256"
        }
      ],
      "name": "_logEvent",
      "outputs": [],
      "stateMutability": "nonpayable",
      "type": "function"
    },
    {
      "inputs": [
        {
          "internalType": "uint256",
          "name": "_eventId",
          "type": "uint256"
        },
        {
          "internalType": "string",
          "name": "_newName",
          "type": "string"
        }
      ],
      "name": "_updateName",
      "outputs": [],
      "stateMutability": "nonpayable",
      "type": "function"
    },
    {
      "inputs": [
        {
          "internalType": "uint256",
          "name": "_eventId",
          "type": "uint256"
        },
        {
          "internalType": "uint256",
          "name": "_newPrice",
          "type": "uint256"
        }
      ],
      "name": "_updatePrice",
      "outputs": [],
      "stateMutability": "nonpayable",
      "type": "function"
    },
    {
      "inputs": [
        {
          "internalType": "uint256",
          "name": "_eventId",
          "type": "uint256"
        },
        {
          "internalType": "uint256",
          "name": "_newTickets",
          "type": "uint256"
        }
      ],
      "name": "_updateTickets",
      "outputs": [],
      "stateMutability": "nonpayable",
      "type": "function"
    },
    {
      "inputs": [
        {
          "internalType": "address",
          "name": "_userAddress",
          "type": "address"
        }
      ],
      "name": "getCreatedEvents",
      "outputs": [
        {
          "components": [
            {
              "internalType": "address",
              "name": "eventGameAddress",
              "type": "address"
            },
            {
              "internalType": "address",
              "name": "eventOwner",
              "type": "address"
            },
            {
              "internalType": "string",
              "name": "eventName",
              "type": "string"
            },
            {
              "internalType": "uint256",
              "name": "numberOfTickets",
              "type": "uint256"
            },
            {
              "internalType": "uint256",
              "name": "ticketPrice",
              "type": "uint256"
            },
            {
              "internalType": "uint256",
              "name": "totalUsers",
              "type": "uint256"
            },
            {
              "internalType": "enum EventLog.GameStatus",
              "name": "status",
              "type": "uint8"
            }
          ],
          "internalType": "struct EventLog.Event[]",
          "name": "",
          "type": "tuple[]"
        }
      ],
      "stateMutability": "view",
      "type": "function"
    },
    {
      "inputs": [
        {
          "internalType": "uint256",
          "name": "_eventId",
          "type": "uint256"
        }
      ],
      "name": "getEvent",
      "outputs": [
        {
          "components": [
            {
              "internalType": "address",
              "name": "eventGameAddress",
              "type": "address"
            },
            {
              "internalType": "address",
              "name": "eventOwner",
              "type": "address"
            },
            {
              "internalType": "string",
              "name": "eventName",
              "type": "string"
            },
            {
              "internalType": "uint256",
              "name": "numberOfTickets",
              "type": "uint256"
            },
            {
              "internalType": "uint256",
              "name": "ticketPrice",
              "type": "uint256"
            },
            {
              "internalType": "uint256",
              "name": "totalUsers",
              "type": "uint256"
            },
            {
              "internalType": "enum EventLog.GameStatus",
              "name": "status",
              "type": "uint8"
            }
          ],
          "internalType": "struct EventLog.Event",
          "name": "",
          "type": "tuple"
        }
      ],
      "stateMutability": "view",
      "type": "function"
    },
    {
      "inputs": [
        {
          "internalType": "uint256",
          "name": "_eventId",
          "type": "uint256"
        }
      ],
      "name": "getEventAddress",
      "outputs": [
        {
          "internalType": "address",
          "name": "",
          "type": "address"
        }
      ],
      "stateMutability": "view",
      "type": "function"
    },
    {
      "inputs": [
        {
          "internalType": "uint256",
          "name": "_eventId",
          "type": "uint256"
        }
      ],
      "name": "getEventName",
      "outputs": [
        {
          "internalType": "string",
          "name": "",
          "type": "string"
        }
      ],
      "stateMutability": "view",
      "type": "function"
    },
    {
      "inputs": [
        {
          "internalType": "uint256",
          "name": "_eventId",
          "type": "uint256"
        }
      ],
      "name": "getNumberOfTickets",
      "outputs": [
        {
          "internalType": "uint256",
          "name": "",
          "type": "uint256"
        }
      ],
      "stateMutability": "view",
      "type": "function"
    },
    {
      "inputs": [],
      "name": "getOpenEvents",
      "outputs": [
        {
          "components": [
            {
              "internalType": "address",
              "name": "eventGameAddress",
              "type": "address"
            },
            {
              "internalType": "address",
              "name": "eventOwner",
              "type": "address"
            },
            {
              "internalType": "string",
              "name": "eventName",
              "type": "string"
            },
            {
              "internalType": "uint256",
              "name": "numberOfTickets",
              "type": "uint256"
            },
            {
              "internalType": "uint256",
              "name": "ticketPrice",
              "type": "uint256"
            },
            {
              "internalType": "uint256",
              "name": "totalUsers",
              "type": "uint256"
            },
            {
              "internalType": "enum EventLog.GameStatus",
              "name": "status",
              "type": "uint8"
            }
          ],
          "internalType": "struct EventLog.Event[]",
          "name": "",
          "type": "tuple[]"
        }
      ],
      "stateMutability": "view",
      "type": "function"
    },
    {
      "inputs": [
        {
          "internalType": "address",
          "name": "_userAddress",
          "type": "address"
        }
      ],
      "name": "getRegisteredEvents",
      "outputs": [
        {
          "components": [
            {
              "internalType": "address",
              "name": "eventGameAddress",
              "type": "address"
            },
            {
              "internalType": "address",
              "name": "eventOwner",
              "type": "address"
            },
            {
              "internalType": "string",
              "name": "eventName",
              "type": "string"
            },
            {
              "internalType": "uint256",
              "name": "numberOfTickets",
              "type": "uint256"
            },
            {
              "internalType": "uint256",
              "name": "ticketPrice",
              "type": "uint256"
            },
            {
              "internalType": "uint256",
              "name": "totalUsers",
              "type": "uint256"
            },
            {
              "internalType": "enum EventLog.GameStatus",
              "name": "status",
              "type": "uint8"
            }
          ],
          "internalType": "struct EventLog.Event[]",
          "name": "",
          "type": "tuple[]"
        }
      ],
      "stateMutability": "view",
      "type": "function"
    }
  ],
  "bytecode": "0x608060405234801561001057600080fd5b5060008055611902806100246000396000f3fe608060405234801561001057600080fd5b506004361061010b5760003560e01c806379050904116100a2578063c90eeff111610071578063c90eeff114610263578063ee0591fe14610276578063f052cf9914610289578063fbf6265e1461029c578063fc999f20146102e557600080fd5b806379050904146102225780637b7528ac1461022a5780639abea6c11461023d578063ab31803f1461025057600080fd5b80634945fcc7116100de5780634945fcc71461019e57806364ab2b10146101be5780636d1884e0146101d15780636e59b1ad146101f157600080fd5b8063069e2fb2146101105780631210b3d6146101255780631c25f16e1461013857806320037f331461017e575b600080fd5b61012361011e36600461158f565b61031f565b005b6101236101333660046116b8565b610397565b6101616101463660046115b8565b6000908152600260205260409020546001600160a01b031690565b6040516001600160a01b0390911681526020015b60405180910390f35b61019161018c36600461156e565b6103cf565b60405161017591906117ab565b6101b16101ac3660046115b8565b610661565b604051610175919061180c565b6101236101cc366004611673565b610709565b6101e46101df3660046115b8565b610756565b604051610175919061181f565b6102146101ff3660046115b8565b60009081526002602052604090206003015490565b604051908152602001610175565b61019161089d565b6101236102383660046115b8565b610b43565b61012361024b3660046116b8565b610d4a565b61019161025e36600461156e565b610d82565b6101236102713660046115fb565b61100b565b6101236102843660046115d0565b611175565b6101236102973660046115b8565b6111c8565b6102d56102aa3660046115d0565b60009182526005602090815260408084206001600160a01b0393909316845291905290205460ff1690565b6040519015158152602001610175565b6101236102f336600461158f565b6001600160a01b0390911660009081526004602090815260408220805460018101825590835291200155565b6000818152600260205260409020546001600160a01b0316331461034257600080fd5b6001600160a01b0382166000908152600360209081526040808320805460018181018355918552838520018590558484526002909252822060050180549192909161038e908490611832565b90915550505050565b6000828152600260205260409020546001600160a01b031633146103ba57600080fd5b60009182526002602052604090912060040155565b6001600160a01b038116600090815260046020908152604080832080548251818502810185019093528083526060949383018282801561042e57602002820191906000526020600020905b81548152602001906001019080831161041a575b5050505050905060008151905060008167ffffffffffffffff81111561046457634e487b7160e01b600052604160045260246000fd5b60405190808252806020026020018201604052801561049d57816020015b61048a6113c5565b8152602001906001900390816104825790505b50905060005b828110156106585760008482815181106104cd57634e487b7160e01b600052603260045260246000fd5b602090810291909101810151600081815260028084526040808320815160e08101835281546001600160a01b0390811682526001830154169681019690965291820180549496509294939192908401916105269061184a565b80601f01602080910402602001604051908101604052809291908181526020018280546105529061184a565b801561059f5780601f106105745761010080835404028352916020019161059f565b820191906000526020600020905b81548152906001019060200180831161058257829003601f168201915b5050509183525050600382015460208201526004820154604082015260058201546060820152600682015460809091019060ff1660028111156105f257634e487b7160e01b600052602160045260246000fd5b600281111561061157634e487b7160e01b600052602160045260246000fd5b8152505090508084848151811061063857634e487b7160e01b600052603260045260246000fd5b60200260200101819052505050808061065090611885565b9150506104a3565b50949350505050565b60606002600083815260200190815260200160002060020180546106849061184a565b80601f01602080910402602001604051908101604052809291908181526020018280546106b09061184a565b80156106fd5780601f106106d2576101008083540402835291602001916106fd565b820191906000526020600020905b8154815290600101906020018083116106e057829003601f168201915b50505050509050919050565b6000828152600260205260409020546001600160a01b0316331461072c57600080fd5b6000828152600260208181526040909220835161075193919092019190840190611432565b505050565b61075e6113c5565b6000828152600260208181526040808420815160e08101835281546001600160a01b039081168252600183015416938101939093529283018054929392918401916107a89061184a565b80601f01602080910402602001604051908101604052809291908181526020018280546107d49061184a565b80156108215780601f106107f657610100808354040283529160200191610821565b820191906000526020600020905b81548152906001019060200180831161080457829003601f168201915b5050509183525050600382015460208201526004820154604082015260058201546060820152600682015460809091019060ff16600281111561087457634e487b7160e01b600052602160045260246000fd5b600281111561089357634e487b7160e01b600052602160045260246000fd5b9052509392505050565b6060600060015b600054811161090857600081815260026020819052604082206006015460ff16908111156108e257634e487b7160e01b600052602160045260246000fd5b14156108f6576108f3600183611832565b91505b8061090081611885565b9150506108a4565b5060008167ffffffffffffffff81111561093257634e487b7160e01b600052604160045260246000fd5b60405190808252806020026020018201604052801561096b57816020015b6109586113c5565b8152602001906001900390816109505790505b509050600060015b6000548111610b3a57600081815260026020819052604082206006015460ff16908111156109b157634e487b7160e01b600052602160045260246000fd5b1415610b2857600081815260026020818152604092839020835160e08101855281546001600160a01b0390811682526001830154169281019290925291820180549193840191610a009061184a565b80601f0160208091040260200160405190810160405280929190818152602001828054610a2c9061184a565b8015610a795780601f10610a4e57610100808354040283529160200191610a79565b820191906000526020600020905b815481529060010190602001808311610a5c57829003601f168201915b5050509183525050600382015460208201526004820154604082015260058201546060820152600682015460809091019060ff166002811115610acc57634e487b7160e01b600052602160045260246000fd5b6002811115610aeb57634e487b7160e01b600052602160045260246000fd5b81525050838381518110610b0f57634e487b7160e01b600052603260045260246000fd5b6020908102919091010152610b25600183611832565b91505b80610b3281611885565b915050610973565b50909392505050565b6000818152600260205260409020546001600160a01b03163314610b6657600080fd5b600160008281526002602081905260409091206006015460ff1690811115610b9e57634e487b7160e01b600052602160045260246000fd5b14610ba857600080fd5b600081815260026020818152604080842060068101805460ff191685179055815160e08101835281546001600160a01b03908116825260018301541693810193909352928301805492939291840191610c009061184a565b80601f0160208091040260200160405190810160405280929190818152602001828054610c2c9061184a565b8015610c795780601f10610c4e57610100808354040283529160200191610c79565b820191906000526020600020905b815481529060010190602001808311610c5c57829003601f168201915b5050509183525050600382015460208201526004820154604082015260058201546060820152600682015460809091019060ff166002811115610ccc57634e487b7160e01b600052602160045260246000fd5b6002811115610ceb57634e487b7160e01b600052602160045260246000fd5b81525050905080602001516001600160a01b031681600001516001600160a01b03167fc5e48929c6ad41636874ae3938e60e36431dd0899ca520e58c58107c9e4454de42604051610d3e91815260200190565b60405180910390a35050565b6000828152600260205260409020546001600160a01b03163314610d6d57600080fd5b60009182526002602052604090912060030155565b6001600160a01b0381166000908152600360209081526040808320805482518185028101850190935280835260609493830182828015610de157602002820191906000526020600020905b815481526020019060010190808311610dcd575b5050505050905060008151905060008167ffffffffffffffff811115610e1757634e487b7160e01b600052604160045260246000fd5b604051908082528060200260200182016040528015610e5057816020015b610e3d6113c5565b815260200190600190039081610e355790505b50905060005b82811015610658576000848281518110610e8057634e487b7160e01b600052603260045260246000fd5b602090810291909101810151600081815260028084526040808320815160e08101835281546001600160a01b039081168252600183015416968101969096529182018054949650929493919290840191610ed99061184a565b80601f0160208091040260200160405190810160405280929190818152602001828054610f059061184a565b8015610f525780601f10610f2757610100808354040283529160200191610f52565b820191906000526020600020905b815481529060010190602001808311610f3557829003601f168201915b5050509183525050600382015460208201526004820154604082015260058201546060820152600682015460809091019060ff166002811115610fa557634e487b7160e01b600052602160045260246000fd5b6002811115610fc457634e487b7160e01b600052602160045260246000fd5b81525050905080848481518110610feb57634e487b7160e01b600052603260045260246000fd5b60200260200101819052505050808061100390611885565b915050610e56565b6040518060e00160405280866001600160a01b03168152602001856001600160a01b03168152602001848152602001838152602001828152602001600081526020016000600281111561106e57634e487b7160e01b600052602160045260246000fd5b9052600087815260026020818152604092839020845181546001600160a01b039182166001600160a01b0319918216178355868401516001840180549190931691161790559284015180516110ca938501929190910190611432565b50606082015160038201556080820151600482015560a0820151600582015560c082015160068201805460ff1916600183600281111561111a57634e487b7160e01b600052602160045260246000fd5b021790555090505060016000808282546111349190611832565b90915550506001805480820182556000919091527fb10e2d527612073b26eecdfd717e6a320cf44b4afac2b0732d9fcbe2b7fa0cf601959095555050505050565b6000828152600260205260409020546001600160a01b0316331461119857600080fd5b60009182526005602090815260408084206001600160a01b0390931684529190529020805460ff19166001179055565b6000818152600260205260409020546001600160a01b031633146111eb57600080fd5b600081815260026020819052604082206006015460ff169081111561122057634e487b7160e01b600052602160045260246000fd5b1461122a57600080fd5b600081815260026020818152604080842060068101805460ff19166001908117909155825160e08101845282546001600160a01b03908116825291830154909116938101939093529283018054929392918401916112879061184a565b80601f01602080910402602001604051908101604052809291908181526020018280546112b39061184a565b80156113005780601f106112d557610100808354040283529160200191611300565b820191906000526020600020905b8154815290600101906020018083116112e357829003601f168201915b5050509183525050600382015460208201526004820154604082015260058201546060820152600682015460809091019060ff16600281111561135357634e487b7160e01b600052602160045260246000fd5b600281111561137257634e487b7160e01b600052602160045260246000fd5b81525050905080602001516001600160a01b031681600001516001600160a01b03167fee0dca10a9957dad74da3fe318a3ccc561c46d96be0ab0b66e7aff32aab94cf342604051610d3e91815260200190565b6040518060e0016040528060006001600160a01b0316815260200160006001600160a01b03168152602001606081526020016000815260200160008152602001600081526020016000600281111561142d57634e487b7160e01b600052602160045260246000fd5b905290565b82805461143e9061184a565b90600052602060002090601f01602090048101928261146057600085556114a6565b82601f1061147957805160ff19168380011785556114a6565b828001600101855582156114a6579182015b828111156114a657825182559160200191906001019061148b565b506114b29291506114b6565b5090565b5b808211156114b257600081556001016114b7565b80356001600160a01b03811681146114e257600080fd5b919050565b600082601f8301126114f7578081fd5b813567ffffffffffffffff80821115611512576115126118b6565b604051601f8301601f19908116603f0116810190828211818310171561153a5761153a6118b6565b81604052838152866020858801011115611552578485fd5b8360208701602083013792830160200193909352509392505050565b60006020828403121561157f578081fd5b611588826114cb565b9392505050565b600080604083850312156115a1578081fd5b6115aa836114cb565b946020939093013593505050565b6000602082840312156115c9578081fd5b5035919050565b600080604083850312156115e2578182fd5b823591506115f2602084016114cb565b90509250929050565b60008060008060008060c08789031215611613578182fd5b86359550611623602088016114cb565b9450611631604088016114cb565b9350606087013567ffffffffffffffff81111561164c578283fd5b61165889828a016114e7565b9350506080870135915060a087013590509295509295509295565b60008060408385031215611685578182fd5b82359150602083013567ffffffffffffffff8111156116a2578182fd5b6116ae858286016114e7565b9150509250929050565b600080604083850312156116ca578182fd5b50508035926020909101359150565b60008151808452815b818110156116fe576020818501810151868301820152016116e2565b8181111561170f5782602083870101525b50601f01601f19169290920160200192915050565b600060018060a01b0380835116845280602084015116602085015250604082015160e0604085015261175960e08501826116d9565b9050606083015160608501526080830151608085015260a083015160a085015260c08301516003811061179a57634e487b7160e01b83526021600452602483fd5b8060c0860152508091505092915050565b6000602080830181845280855180835260408601915060408160051b8701019250838701855b828110156117ff57603f198886030184526117ed858351611724565b945092850192908501906001016117d1565b5092979650505050505050565b60208152600061158860208301846116d9565b6020815260006115886020830184611724565b60008219821115611845576118456118a0565b500190565b600181811c9082168061185e57607f821691505b6020821081141561187f57634e487b7160e01b600052602260045260246000fd5b50919050565b6000600019821415611899576118996118a0565b5060010190565b634e487b7160e01b600052601160045260246000fd5b634e487b7160e01b600052604160045260246000fdfea2646970667358221220596aa9ad3b4562a11831130d2c33a5380006f498bd4af154bf39b22276fdb73564736f6c63430008040033",
  "linkReferences": {},
  "deployedLinkReferences": {}
}