{
  "_format": "hh-sol-artifact-1",
  "contractName": "EventLog",
  "sourceName": "contracts/eventLog.sol",
  "abi": [
    {
      "inputs": [],
      "stateMutability": "nonpayable",
      "type": "constructor"
    },
    {
      "anonymous": false,
      "inputs": [
        {
          "indexed": true,
          "internalType": "address",
          "name": "gameAddress",
          "type": "address"
        },
        {
          "indexed": true,
          "internalType": "address",
          "name": "owner",
          "type": "address"
        },
        {
          "indexed": false,
          "internalType": "uint256",
          "name": "timeStarted",
          "type": "uint256"
        }
      ],
      "name": "GameEnded",
      "type": "event"
    },
    {
      "anonymous": false,
      "inputs": [
        {
          "indexed": true,
          "internalType": "address",
          "name": "gameAddress",
          "type": "address"
        },
        {
          "indexed": true,
          "internalType": "address",
          "name": "owner",
          "type": "address"
        },
        {
          "indexed": false,
          "internalType": "uint256",
          "name": "timeStarted",
          "type": "uint256"
        }
      ],
      "name": "GameStarted",
      "type": "event"
    },
    {
      "inputs": [
        {
          "internalType": "address",
          "name": "_userAddress",
          "type": "address"
        },
        {
          "internalType": "uint256",
          "name": "_eventId",
          "type": "uint256"
        }
      ],
      "name": "_addCreatedEvent",
      "outputs": [],
      "stateMutability": "nonpayable",
      "type": "function"
    },
    {
      "inputs": [
        {
          "internalType": "address",
          "name": "_userAddress",
          "type": "address"
        },
        {
          "internalType": "uint256",
          "name": "_eventId",
          "type": "uint256"
        }
      ],
      "name": "_addRegisteredEvent",
      "outputs": [],
      "stateMutability": "nonpayable",
      "type": "function"
    },
    {
      "inputs": [
        {
          "internalType": "uint256",
          "name": "_eventId",
          "type": "uint256"
        },
        {
          "internalType": "address",
          "name": "_winner",
          "type": "address"
        }
      ],
      "name": "_addWinner",
      "outputs": [],
      "stateMutability": "nonpayable",
      "type": "function"
    },
    {
      "inputs": [
        {
          "internalType": "uint256",
          "name": "_eventId",
          "type": "uint256"
        }
      ],
      "name": "_gameEnd",
      "outputs": [],
      "stateMutability": "nonpayable",
      "type": "function"
    },
    {
      "inputs": [
        {
          "internalType": "uint256",
          "name": "_eventId",
          "type": "uint256"
        }
      ],
      "name": "_gameStart",
      "outputs": [],
      "stateMutability": "nonpayable",
      "type": "function"
    },
    {
      "inputs": [
        {
          "internalType": "uint256",
          "name": "_eventId",
          "type": "uint256"
        }
      ],
      "name": "_getEventName",
      "outputs": [
        {
          "internalType": "string",
          "name": "",
          "type": "string"
        }
      ],
      "stateMutability": "view",
      "type": "function"
    },
    {
      "inputs": [
        {
          "internalType": "uint256",
          "name": "_eventId",
          "type": "uint256"
        }
      ],
      "name": "_getNumberOfTickets",
      "outputs": [
        {
          "internalType": "uint256",
          "name": "",
          "type": "uint256"
        }
      ],
      "stateMutability": "view",
      "type": "function"
    },
    {
      "inputs": [
        {
          "internalType": "uint256",
          "name": "_eventId",
          "type": "uint256"
        },
        {
          "internalType": "address",
          "name": "_userAddress",
          "type": "address"
        }
      ],
      "name": "_isWinner",
      "outputs": [
        {
          "internalType": "bool",
          "name": "",
          "type": "bool"
        }
      ],
      "stateMutability": "view",
      "type": "function"
    },
    {
      "inputs": [
        {
          "internalType": "uint256",
          "name": "_eventId",
          "type": "uint256"
        },
        {
          "internalType": "address",
          "name": "_eventGameAddress",
          "type": "address"
        },
        {
          "internalType": "address",
          "name": "_eventOwner",
          "type": "address"
        },
        {
          "internalType": "string",
          "name": "_eventName",
          "type": "string"
        },
        {
          "internalType": "uint256",
          "name": "_numberOfTickets",
          "type": "uint256"
        },
        {
          "internalType": "uint256",
          "name": "_ticketPrice",
          "type": "uint256"
        }
      ],
      "name": "_logEvent",
      "outputs": [],
      "stateMutability": "nonpayable",
      "type": "function"
    },
    {
      "inputs": [
        {
          "internalType": "uint256",
          "name": "_eventId",
          "type": "uint256"
        },
        {
          "internalType": "string",
          "name": "_newName",
          "type": "string"
        }
      ],
      "name": "_updateName",
      "outputs": [],
      "stateMutability": "nonpayable",
      "type": "function"
    },
    {
      "inputs": [
        {
          "internalType": "uint256",
          "name": "_eventId",
          "type": "uint256"
        },
        {
          "internalType": "uint256",
          "name": "_newPrice",
          "type": "uint256"
        }
      ],
      "name": "_updatePrice",
      "outputs": [],
      "stateMutability": "nonpayable",
      "type": "function"
    },
    {
      "inputs": [
        {
          "internalType": "uint256",
          "name": "_eventId",
          "type": "uint256"
        },
        {
          "internalType": "uint256",
          "name": "_newTickets",
          "type": "uint256"
        }
      ],
      "name": "_updateTickets",
      "outputs": [],
      "stateMutability": "nonpayable",
      "type": "function"
    },
    {
      "inputs": [
        {
          "internalType": "address",
          "name": "_userAddress",
          "type": "address"
        }
      ],
      "name": "getCreatedEvents",
      "outputs": [
        {
          "components": [
            {
              "internalType": "address",
              "name": "eventGameAddress",
              "type": "address"
            },
            {
              "internalType": "address",
              "name": "eventOwner",
              "type": "address"
            },
            {
              "internalType": "string",
              "name": "eventName",
              "type": "string"
            },
            {
              "internalType": "uint256",
              "name": "numberOfTickets",
              "type": "uint256"
            },
            {
              "internalType": "uint256",
              "name": "ticketPrice",
              "type": "uint256"
            },
            {
              "internalType": "uint256",
              "name": "totalUsers",
              "type": "uint256"
            },
            {
              "internalType": "enum EventLog.GameStatus",
              "name": "status",
              "type": "uint8"
            }
          ],
          "internalType": "struct EventLog.Event[]",
          "name": "",
          "type": "tuple[]"
        }
      ],
      "stateMutability": "view",
      "type": "function"
    },
    {
      "inputs": [
        {
          "internalType": "uint256",
          "name": "_eventId",
          "type": "uint256"
        }
      ],
      "name": "getEvent",
      "outputs": [
        {
          "components": [
            {
              "internalType": "address",
              "name": "eventGameAddress",
              "type": "address"
            },
            {
              "internalType": "address",
              "name": "eventOwner",
              "type": "address"
            },
            {
              "internalType": "string",
              "name": "eventName",
              "type": "string"
            },
            {
              "internalType": "uint256",
              "name": "numberOfTickets",
              "type": "uint256"
            },
            {
              "internalType": "uint256",
              "name": "ticketPrice",
              "type": "uint256"
            },
            {
              "internalType": "uint256",
              "name": "totalUsers",
              "type": "uint256"
            },
            {
              "internalType": "enum EventLog.GameStatus",
              "name": "status",
              "type": "uint8"
            }
          ],
          "internalType": "struct EventLog.Event",
          "name": "",
          "type": "tuple"
        }
      ],
      "stateMutability": "view",
      "type": "function"
    },
    {
      "inputs": [
        {
          "internalType": "uint256",
          "name": "_eventId",
          "type": "uint256"
        }
      ],
      "name": "getEventAddress",
      "outputs": [
        {
          "internalType": "address",
          "name": "",
          "type": "address"
        }
      ],
      "stateMutability": "view",
      "type": "function"
    },
    {
      "inputs": [],
      "name": "getOpenEvents",
      "outputs": [
        {
          "components": [
            {
              "internalType": "address",
              "name": "eventGameAddress",
              "type": "address"
            },
            {
              "internalType": "address",
              "name": "eventOwner",
              "type": "address"
            },
            {
              "internalType": "string",
              "name": "eventName",
              "type": "string"
            },
            {
              "internalType": "uint256",
              "name": "numberOfTickets",
              "type": "uint256"
            },
            {
              "internalType": "uint256",
              "name": "ticketPrice",
              "type": "uint256"
            },
            {
              "internalType": "uint256",
              "name": "totalUsers",
              "type": "uint256"
            },
            {
              "internalType": "enum EventLog.GameStatus",
              "name": "status",
              "type": "uint8"
            }
          ],
          "internalType": "struct EventLog.Event[]",
          "name": "",
          "type": "tuple[]"
        }
      ],
      "stateMutability": "view",
      "type": "function"
    },
    {
      "inputs": [
        {
          "internalType": "address",
          "name": "_userAddress",
          "type": "address"
        }
      ],
      "name": "getRegisteredEvents",
      "outputs": [
        {
          "components": [
            {
              "internalType": "address",
              "name": "eventGameAddress",
              "type": "address"
            },
            {
              "internalType": "address",
              "name": "eventOwner",
              "type": "address"
            },
            {
              "internalType": "string",
              "name": "eventName",
              "type": "string"
            },
            {
              "internalType": "uint256",
              "name": "numberOfTickets",
              "type": "uint256"
            },
            {
              "internalType": "uint256",
              "name": "ticketPrice",
              "type": "uint256"
            },
            {
              "internalType": "uint256",
              "name": "totalUsers",
              "type": "uint256"
            },
            {
              "internalType": "enum EventLog.GameStatus",
              "name": "status",
              "type": "uint8"
            }
          ],
          "internalType": "struct EventLog.Event[]",
          "name": "",
          "type": "tuple[]"
        }
      ],
      "stateMutability": "view",
      "type": "function"
    }
  ],
  "bytecode": "0x608060405234801561001057600080fd5b5060008055611810806100246000396000f3fe608060405234801561001057600080fd5b506004361061010b5760003560e01c80637b7528ac116100a2578063c90eeff111610071578063c90eeff114610263578063ee0591fe14610276578063f052cf99146102b4578063fbf6265e146102c7578063fc999f20146102ea57600080fd5b80637b7528ac146101f957806398df10061461020c5780639abea6c11461023d578063ab31803f1461025057600080fd5b806364ab2b10116100de57806364ab2b101461019e5780636d1884e0146101b15780636e64d549146101d157806379050904146101f157600080fd5b8063069e2fb2146101105780631210b3d6146101255780631c25f16e1461013857806320037f331461017e575b600080fd5b61012361011e36600461149d565b610324565b005b6101236101333660046115c6565b610379565b6101616101463660046114c6565b6000908152600260205260409020546001600160a01b031690565b6040516001600160a01b0390911681526020015b60405180910390f35b61019161018c36600461147c565b6103b1565b60405161017591906116b9565b6101236101ac366004611581565b610643565b6101c46101bf3660046114c6565b610690565b604051610175919061172d565b6101e46101df3660046114c6565b6107d7565b604051610175919061171a565b61019161087e565b6101236102073660046114c6565b610b24565b61022f61021a3660046114c6565b60009081526002602052604090206003015490565b604051908152602001610175565b61012361024b3660046115c6565b610ccb565b61019161025e36600461147c565b610d03565b610123610271366004611509565b610f8c565b6101236102843660046114de565b60009182526005602090815260408084206001600160a01b0390931684529190529020805460ff19166001179055565b6101236102c23660046114c6565b6110f6565b6102da6102d53660046114de565b611291565b6040519015158152602001610175565b6101236102f836600461149d565b6001600160a01b0390911660009081526004602090815260408220805460018101825590835291200155565b6001600160a01b03821660009081526003602090815260408083208054600181810183559185528385200185905584845260029092528220600501805491929091610370908490611740565b90915550505050565b6000828152600260205260409020546001600160a01b0316331461039c57600080fd5b60009182526002602052604090912060040155565b6001600160a01b038116600090815260046020908152604080832080548251818502810185019093528083526060949383018282801561041057602002820191906000526020600020905b8154815260200190600101908083116103fc575b5050505050905060008151905060008167ffffffffffffffff81111561044657634e487b7160e01b600052604160045260246000fd5b60405190808252806020026020018201604052801561047f57816020015b61046c6112d3565b8152602001906001900390816104645790505b50905060005b8281101561063a5760008482815181106104af57634e487b7160e01b600052603260045260246000fd5b602090810291909101810151600081815260028084526040808320815160e08101835281546001600160a01b03908116825260018301541696810196909652918201805494965092949391929084019161050890611758565b80601f016020809104026020016040519081016040528092919081815260200182805461053490611758565b80156105815780601f1061055657610100808354040283529160200191610581565b820191906000526020600020905b81548152906001019060200180831161056457829003601f168201915b5050509183525050600382015460208201526004820154604082015260058201546060820152600682015460809091019060ff1660028111156105d457634e487b7160e01b600052602160045260246000fd5b60028111156105f357634e487b7160e01b600052602160045260246000fd5b8152505090508084848151811061061a57634e487b7160e01b600052603260045260246000fd5b60200260200101819052505050808061063290611793565b915050610485565b50949350505050565b6000828152600260205260409020546001600160a01b0316331461066657600080fd5b6000828152600260208181526040909220835161068b93919092019190840190611340565b505050565b6106986112d3565b6000828152600260208181526040808420815160e08101835281546001600160a01b039081168252600183015416938101939093529283018054929392918401916106e290611758565b80601f016020809104026020016040519081016040528092919081815260200182805461070e90611758565b801561075b5780601f106107305761010080835404028352916020019161075b565b820191906000526020600020905b81548152906001019060200180831161073e57829003601f168201915b5050509183525050600382015460208201526004820154604082015260058201546060820152600682015460809091019060ff1660028111156107ae57634e487b7160e01b600052602160045260246000fd5b60028111156107cd57634e487b7160e01b600052602160045260246000fd5b9052509392505050565b6000818152600260208190526040822001805460609291906107f890611758565b80601f016020809104026020016040519081016040528092919081815260200182805461082490611758565b80156108715780601f1061084657610100808354040283529160200191610871565b820191906000526020600020905b81548152906001019060200180831161085457829003601f168201915b5093979650505050505050565b6060600060015b60005481116108e957600081815260026020819052604082206006015460ff16908111156108c357634e487b7160e01b600052602160045260246000fd5b14156108d7576108d4600183611740565b91505b806108e181611793565b915050610885565b5060008167ffffffffffffffff81111561091357634e487b7160e01b600052604160045260246000fd5b60405190808252806020026020018201604052801561094c57816020015b6109396112d3565b8152602001906001900390816109315790505b509050600060015b6000548111610b1b57600081815260026020819052604082206006015460ff169081111561099257634e487b7160e01b600052602160045260246000fd5b1415610b0957600081815260026020818152604092839020835160e08101855281546001600160a01b03908116825260018301541692810192909252918201805491938401916109e190611758565b80601f0160208091040260200160405190810160405280929190818152602001828054610a0d90611758565b8015610a5a5780601f10610a2f57610100808354040283529160200191610a5a565b820191906000526020600020905b815481529060010190602001808311610a3d57829003601f168201915b5050509183525050600382015460208201526004820154604082015260058201546060820152600682015460809091019060ff166002811115610aad57634e487b7160e01b600052602160045260246000fd5b6002811115610acc57634e487b7160e01b600052602160045260246000fd5b81525050838381518110610af057634e487b7160e01b600052603260045260246000fd5b6020908102919091010152610b06600183611740565b91505b80610b1381611793565b915050610954565b50909392505050565b600081815260026020818152604080842060068101805460ff19166001908117909155825160e08101845282546001600160a01b0390811682529183015490911693810193909352928301805492939291840191610b8190611758565b80601f0160208091040260200160405190810160405280929190818152602001828054610bad90611758565b8015610bfa5780601f10610bcf57610100808354040283529160200191610bfa565b820191906000526020600020905b815481529060010190602001808311610bdd57829003601f168201915b5050509183525050600382015460208201526004820154604082015260058201546060820152600682015460809091019060ff166002811115610c4d57634e487b7160e01b600052602160045260246000fd5b6002811115610c6c57634e487b7160e01b600052602160045260246000fd5b81525050905080602001516001600160a01b031681600001516001600160a01b03167fc5e48929c6ad41636874ae3938e60e36431dd0899ca520e58c58107c9e4454de42604051610cbf91815260200190565b60405180910390a35050565b6000828152600260205260409020546001600160a01b03163314610cee57600080fd5b60009182526002602052604090912060030155565b6001600160a01b0381166000908152600360209081526040808320805482518185028101850190935280835260609493830182828015610d6257602002820191906000526020600020905b815481526020019060010190808311610d4e575b5050505050905060008151905060008167ffffffffffffffff811115610d9857634e487b7160e01b600052604160045260246000fd5b604051908082528060200260200182016040528015610dd157816020015b610dbe6112d3565b815260200190600190039081610db65790505b50905060005b8281101561063a576000848281518110610e0157634e487b7160e01b600052603260045260246000fd5b602090810291909101810151600081815260028084526040808320815160e08101835281546001600160a01b039081168252600183015416968101969096529182018054949650929493919290840191610e5a90611758565b80601f0160208091040260200160405190810160405280929190818152602001828054610e8690611758565b8015610ed35780601f10610ea857610100808354040283529160200191610ed3565b820191906000526020600020905b815481529060010190602001808311610eb657829003601f168201915b5050509183525050600382015460208201526004820154604082015260058201546060820152600682015460809091019060ff166002811115610f2657634e487b7160e01b600052602160045260246000fd5b6002811115610f4557634e487b7160e01b600052602160045260246000fd5b81525050905080848481518110610f6c57634e487b7160e01b600052603260045260246000fd5b602002602001018190525050508080610f8490611793565b915050610dd7565b6040518060e00160405280866001600160a01b03168152602001856001600160a01b031681526020018481526020018381526020018281526020016000815260200160006002811115610fef57634e487b7160e01b600052602160045260246000fd5b9052600087815260026020818152604092839020845181546001600160a01b039182166001600160a01b03199182161783558684015160018401805491909316911617905592840151805161104b938501929190910190611340565b50606082015160038201556080820151600482015560a0820151600582015560c082015160068201805460ff1916600183600281111561109b57634e487b7160e01b600052602160045260246000fd5b021790555090505060016000808282546110b59190611740565b90915550506001805480820182556000919091527fb10e2d527612073b26eecdfd717e6a320cf44b4afac2b0732d9fcbe2b7fa0cf601959095555050505050565b600081815260026020818152604080842060068101805460ff19166001908117909155825160e08101845282546001600160a01b039081168252918301549091169381019390935292830180549293929184019161115390611758565b80601f016020809104026020016040519081016040528092919081815260200182805461117f90611758565b80156111cc5780601f106111a1576101008083540402835291602001916111cc565b820191906000526020600020905b8154815290600101906020018083116111af57829003601f168201915b5050509183525050600382015460208201526004820154604082015260058201546060820152600682015460809091019060ff16600281111561121f57634e487b7160e01b600052602160045260246000fd5b600281111561123e57634e487b7160e01b600052602160045260246000fd5b81525050905080602001516001600160a01b031681600001516001600160a01b03167fee0dca10a9957dad74da3fe318a3ccc561c46d96be0ab0b66e7aff32aab94cf342604051610cbf91815260200190565b60008281526005602090815260408083206001600160a01b038516845290915281205460ff161515600114156112c9575060016112cd565b5060005b92915050565b6040518060e0016040528060006001600160a01b0316815260200160006001600160a01b03168152602001606081526020016000815260200160008152602001600081526020016000600281111561133b57634e487b7160e01b600052602160045260246000fd5b905290565b82805461134c90611758565b90600052602060002090601f01602090048101928261136e57600085556113b4565b82601f1061138757805160ff19168380011785556113b4565b828001600101855582156113b4579182015b828111156113b4578251825591602001919060010190611399565b506113c09291506113c4565b5090565b5b808211156113c057600081556001016113c5565b80356001600160a01b03811681146113f057600080fd5b919050565b600082601f830112611405578081fd5b813567ffffffffffffffff80821115611420576114206117c4565b604051601f8301601f19908116603f01168101908282118183101715611448576114486117c4565b81604052838152866020858801011115611460578485fd5b8360208701602083013792830160200193909352509392505050565b60006020828403121561148d578081fd5b611496826113d9565b9392505050565b600080604083850312156114af578081fd5b6114b8836113d9565b946020939093013593505050565b6000602082840312156114d7578081fd5b5035919050565b600080604083850312156114f0578182fd5b82359150611500602084016113d9565b90509250929050565b60008060008060008060c08789031215611521578182fd5b86359550611531602088016113d9565b945061153f604088016113d9565b9350606087013567ffffffffffffffff81111561155a578283fd5b61156689828a016113f5565b9350506080870135915060a087013590509295509295509295565b60008060408385031215611593578182fd5b82359150602083013567ffffffffffffffff8111156115b0578182fd5b6115bc858286016113f5565b9150509250929050565b600080604083850312156115d8578182fd5b50508035926020909101359150565b60008151808452815b8181101561160c576020818501810151868301820152016115f0565b8181111561161d5782602083870101525b50601f01601f19169290920160200192915050565b600060018060a01b0380835116845280602084015116602085015250604082015160e0604085015261166760e08501826115e7565b9050606083015160608501526080830151608085015260a083015160a085015260c0830151600381106116a857634e487b7160e01b83526021600452602483fd5b8060c0860152508091505092915050565b6000602080830181845280855180835260408601915060408160051b8701019250838701855b8281101561170d57603f198886030184526116fb858351611632565b945092850192908501906001016116df565b5092979650505050505050565b60208152600061149660208301846115e7565b6020815260006114966020830184611632565b60008219821115611753576117536117ae565b500190565b600181811c9082168061176c57607f821691505b6020821081141561178d57634e487b7160e01b600052602260045260246000fd5b50919050565b60006000198214156117a7576117a76117ae565b5060010190565b634e487b7160e01b600052601160045260246000fd5b634e487b7160e01b600052604160045260246000fdfea2646970667358221220aa2c62d5383a9b5afb7de8d3cc54fb94117b3aafbcc4470682c7e565a21c8bca64736f6c63430008040033",
  "linkReferences": {},
  "deployedLinkReferences": {}
}